{
	"data": {
		"bytecode": {
			"linkReferences": {},
			"object": "6080604052348015600e575f80fd5b506108c18061001c5f395ff3fe608060405234801561000f575f80fd5b506004361061004a575f3560e01c80635039c62f1461004e5780637e1cb1601461006a57806393d5b1ab1461009a578063d8f7bc73146100ca575b5f80fd5b61006860048036038101906100639190610401565b6100fb565b005b610084600480360381019061007f919061046d565b610173565b60405161009191906104a7565b60405180910390f35b6100b460048036038101906100af91906104c0565b61019f565b6040516100c191906104a7565b60405180910390f35b6100e460048036038101906100df919061046d565b6101cc565b6040516100f2929190610567565b60405180910390f35b6001808160018154018082558091505003905f5260205f20905050816001848154811061012b5761012a610595565b5b905f5260205f2090600202015f01908161014591906107bc565b50806001848154811061015b5761015a610595565b5b905f5260205f20906002020160010181905550505050565b5f6001828154811061018857610187610595565b5b905f5260205f209060020201600101549050919050565b6002818051602081018201805184825260208301602085012081835280955050505050505f915090505481565b600181815481106101db575f80fd5b905f5260205f2090600202015f91509050805f0180546101fa906105ef565b80601f0160208091040260200160405190810160405280929190818152602001828054610226906105ef565b80156102715780601f1061024857610100808354040283529160200191610271565b820191905f5260205f20905b81548152906001019060200180831161025457829003601f168201915b5050505050908060010154905082565b5f604051905090565b5f80fd5b5f80fd5b5f819050919050565b6102a481610292565b81146102ae575f80fd5b50565b5f813590506102bf8161029b565b92915050565b5f80fd5b5f80fd5b5f601f19601f8301169050919050565b7f4e487b71000000000000000000000000000000000000000000000000000000005f52604160045260245ffd5b610313826102cd565b810181811067ffffffffffffffff82111715610332576103316102dd565b5b80604052505050565b5f610344610281565b9050610350828261030a565b919050565b5f67ffffffffffffffff82111561036f5761036e6102dd565b5b610378826102cd565b9050602081019050919050565b828183375f83830152505050565b5f6103a56103a084610355565b61033b565b9050828152602081018484840111156103c1576103c06102c9565b5b6103cc848285610385565b509392505050565b5f82601f8301126103e8576103e76102c5565b5b81356103f8848260208601610393565b91505092915050565b5f805f606084860312156104185761041761028a565b5b5f610425868287016102b1565b935050602084013567ffffffffffffffff8111156104465761044561028e565b5b610452868287016103d4565b9250506040610463868287016102b1565b9150509250925092565b5f602082840312156104825761048161028a565b5b5f61048f848285016102b1565b91505092915050565b6104a181610292565b82525050565b5f6020820190506104ba5f830184610498565b92915050565b5f602082840312156104d5576104d461028a565b5b5f82013567ffffffffffffffff8111156104f2576104f161028e565b5b6104fe848285016103d4565b91505092915050565b5f81519050919050565b5f82825260208201905092915050565b8281835e5f83830152505050565b5f61053982610507565b6105438185610511565b9350610553818560208601610521565b61055c816102cd565b840191505092915050565b5f6040820190508181035f83015261057f818561052f565b905061058e6020830184610498565b9392505050565b7f4e487b71000000000000000000000000000000000000000000000000000000005f52603260045260245ffd5b7f4e487b71000000000000000000000000000000000000000000000000000000005f52602260045260245ffd5b5f600282049050600182168061060657607f821691505b602082108103610619576106186105c2565b5b50919050565b5f819050815f5260205f209050919050565b5f6020601f8301049050919050565b5f82821b905092915050565b5f6008830261067b7fffffffffffffffffffffffffffffffffffffffffffffffffffffffffffffffff82610640565b6106858683610640565b95508019841693508086168417925050509392505050565b5f819050919050565b5f6106c06106bb6106b684610292565b61069d565b610292565b9050919050565b5f819050919050565b6106d9836106a6565b6106ed6106e5826106c7565b84845461064c565b825550505050565b5f90565b6107016106f5565b61070c8184846106d0565b505050565b5b8181101561072f576107245f826106f9565b600181019050610712565b5050565b601f821115610774576107458161061f565b61074e84610631565b8101602085101561075d578190505b61077161076985610631565b830182610711565b50505b505050565b5f82821c905092915050565b5f6107945f1984600802610779565b1980831691505092915050565b5f6107ac8383610785565b9150826002028217905092915050565b6107c582610507565b67ffffffffffffffff8111156107de576107dd6102dd565b5b6107e882546105ef565b6107f3828285610733565b5f60209050601f831160018114610824575f8415610812578287015190505b61081c85826107a1565b865550610883565b601f1984166108328661061f565b5f5b8281101561085957848901518255600182019150602085019450602081019050610834565b868310156108765784890151610872601f891682610785565b8355505b6001600288020188555050505b50505050505056fea2646970667358221220601a3ab4fcf35f44c26fd96dda970570203748814fe67eb1f714f5b893949a3b64736f6c634300081a0033",
			"opcodes": "PUSH1 0x80 PUSH1 0x40 MSTORE CALLVALUE DUP1 ISZERO PUSH1 0xE JUMPI PUSH0 DUP1 REVERT JUMPDEST POP PUSH2 0x8C1 DUP1 PUSH2 0x1C PUSH0 CODECOPY PUSH0 RETURN INVALID PUSH1 0x80 PUSH1 0x40 MSTORE CALLVALUE DUP1 ISZERO PUSH2 0xF JUMPI PUSH0 DUP1 REVERT JUMPDEST POP PUSH1 0x4 CALLDATASIZE LT PUSH2 0x4A JUMPI PUSH0 CALLDATALOAD PUSH1 0xE0 SHR DUP1 PUSH4 0x5039C62F EQ PUSH2 0x4E JUMPI DUP1 PUSH4 0x7E1CB160 EQ PUSH2 0x6A JUMPI DUP1 PUSH4 0x93D5B1AB EQ PUSH2 0x9A JUMPI DUP1 PUSH4 0xD8F7BC73 EQ PUSH2 0xCA JUMPI JUMPDEST PUSH0 DUP1 REVERT JUMPDEST PUSH2 0x68 PUSH1 0x4 DUP1 CALLDATASIZE SUB DUP2 ADD SWAP1 PUSH2 0x63 SWAP2 SWAP1 PUSH2 0x401 JUMP JUMPDEST PUSH2 0xFB JUMP JUMPDEST STOP JUMPDEST PUSH2 0x84 PUSH1 0x4 DUP1 CALLDATASIZE SUB DUP2 ADD SWAP1 PUSH2 0x7F SWAP2 SWAP1 PUSH2 0x46D JUMP JUMPDEST PUSH2 0x173 JUMP JUMPDEST PUSH1 0x40 MLOAD PUSH2 0x91 SWAP2 SWAP1 PUSH2 0x4A7 JUMP JUMPDEST PUSH1 0x40 MLOAD DUP1 SWAP2 SUB SWAP1 RETURN JUMPDEST PUSH2 0xB4 PUSH1 0x4 DUP1 CALLDATASIZE SUB DUP2 ADD SWAP1 PUSH2 0xAF SWAP2 SWAP1 PUSH2 0x4C0 JUMP JUMPDEST PUSH2 0x19F JUMP JUMPDEST PUSH1 0x40 MLOAD PUSH2 0xC1 SWAP2 SWAP1 PUSH2 0x4A7 JUMP JUMPDEST PUSH1 0x40 MLOAD DUP1 SWAP2 SUB SWAP1 RETURN JUMPDEST PUSH2 0xE4 PUSH1 0x4 DUP1 CALLDATASIZE SUB DUP2 ADD SWAP1 PUSH2 0xDF SWAP2 SWAP1 PUSH2 0x46D JUMP JUMPDEST PUSH2 0x1CC JUMP JUMPDEST PUSH1 0x40 MLOAD PUSH2 0xF2 SWAP3 SWAP2 SWAP1 PUSH2 0x567 JUMP JUMPDEST PUSH1 0x40 MLOAD DUP1 SWAP2 SUB SWAP1 RETURN JUMPDEST PUSH1 0x1 DUP1 DUP2 PUSH1 0x1 DUP2 SLOAD ADD DUP1 DUP3 SSTORE DUP1 SWAP2 POP POP SUB SWAP1 PUSH0 MSTORE PUSH1 0x20 PUSH0 KECCAK256 SWAP1 POP POP DUP2 PUSH1 0x1 DUP5 DUP2 SLOAD DUP2 LT PUSH2 0x12B JUMPI PUSH2 0x12A PUSH2 0x595 JUMP JUMPDEST JUMPDEST SWAP1 PUSH0 MSTORE PUSH1 0x20 PUSH0 KECCAK256 SWAP1 PUSH1 0x2 MUL ADD PUSH0 ADD SWAP1 DUP2 PUSH2 0x145 SWAP2 SWAP1 PUSH2 0x7BC JUMP JUMPDEST POP DUP1 PUSH1 0x1 DUP5 DUP2 SLOAD DUP2 LT PUSH2 0x15B JUMPI PUSH2 0x15A PUSH2 0x595 JUMP JUMPDEST JUMPDEST SWAP1 PUSH0 MSTORE PUSH1 0x20 PUSH0 KECCAK256 SWAP1 PUSH1 0x2 MUL ADD PUSH1 0x1 ADD DUP2 SWAP1 SSTORE POP POP POP POP JUMP JUMPDEST PUSH0 PUSH1 0x1 DUP3 DUP2 SLOAD DUP2 LT PUSH2 0x188 JUMPI PUSH2 0x187 PUSH2 0x595 JUMP JUMPDEST JUMPDEST SWAP1 PUSH0 MSTORE PUSH1 0x20 PUSH0 KECCAK256 SWAP1 PUSH1 0x2 MUL ADD PUSH1 0x1 ADD SLOAD SWAP1 POP SWAP2 SWAP1 POP JUMP JUMPDEST PUSH1 0x2 DUP2 DUP1 MLOAD PUSH1 0x20 DUP2 ADD DUP3 ADD DUP1 MLOAD DUP5 DUP3 MSTORE PUSH1 0x20 DUP4 ADD PUSH1 0x20 DUP6 ADD KECCAK256 DUP2 DUP4 MSTORE DUP1 SWAP6 POP POP POP POP POP POP PUSH0 SWAP2 POP SWAP1 POP SLOAD DUP2 JUMP JUMPDEST PUSH1 0x1 DUP2 DUP2 SLOAD DUP2 LT PUSH2 0x1DB JUMPI PUSH0 DUP1 REVERT JUMPDEST SWAP1 PUSH0 MSTORE PUSH1 0x20 PUSH0 KECCAK256 SWAP1 PUSH1 0x2 MUL ADD PUSH0 SWAP2 POP SWAP1 POP DUP1 PUSH0 ADD DUP1 SLOAD PUSH2 0x1FA SWAP1 PUSH2 0x5EF JUMP JUMPDEST DUP1 PUSH1 0x1F ADD PUSH1 0x20 DUP1 SWAP2 DIV MUL PUSH1 0x20 ADD PUSH1 0x40 MLOAD SWAP1 DUP2 ADD PUSH1 0x40 MSTORE DUP1 SWAP3 SWAP2 SWAP1 DUP2 DUP2 MSTORE PUSH1 0x20 ADD DUP3 DUP1 SLOAD PUSH2 0x226 SWAP1 PUSH2 0x5EF JUMP JUMPDEST DUP1 ISZERO PUSH2 0x271 JUMPI DUP1 PUSH1 0x1F LT PUSH2 0x248 JUMPI PUSH2 0x100 DUP1 DUP4 SLOAD DIV MUL DUP4 MSTORE SWAP2 PUSH1 0x20 ADD SWAP2 PUSH2 0x271 JUMP JUMPDEST DUP3 ADD SWAP2 SWAP1 PUSH0 MSTORE PUSH1 0x20 PUSH0 KECCAK256 SWAP1 JUMPDEST DUP2 SLOAD DUP2 MSTORE SWAP1 PUSH1 0x1 ADD SWAP1 PUSH1 0x20 ADD DUP1 DUP4 GT PUSH2 0x254 JUMPI DUP3 SWAP1 SUB PUSH1 0x1F AND DUP3 ADD SWAP2 JUMPDEST POP POP POP POP POP SWAP1 DUP1 PUSH1 0x1 ADD SLOAD SWAP1 POP DUP3 JUMP JUMPDEST PUSH0 PUSH1 0x40 MLOAD SWAP1 POP SWAP1 JUMP JUMPDEST PUSH0 DUP1 REVERT JUMPDEST PUSH0 DUP1 REVERT JUMPDEST PUSH0 DUP2 SWAP1 POP SWAP2 SWAP1 POP JUMP JUMPDEST PUSH2 0x2A4 DUP2 PUSH2 0x292 JUMP JUMPDEST DUP2 EQ PUSH2 0x2AE JUMPI PUSH0 DUP1 REVERT JUMPDEST POP JUMP JUMPDEST PUSH0 DUP2 CALLDATALOAD SWAP1 POP PUSH2 0x2BF DUP2 PUSH2 0x29B JUMP JUMPDEST SWAP3 SWAP2 POP POP JUMP JUMPDEST PUSH0 DUP1 REVERT JUMPDEST PUSH0 DUP1 REVERT JUMPDEST PUSH0 PUSH1 0x1F NOT PUSH1 0x1F DUP4 ADD AND SWAP1 POP SWAP2 SWAP1 POP JUMP JUMPDEST PUSH32 0x4E487B7100000000000000000000000000000000000000000000000000000000 PUSH0 MSTORE PUSH1 0x41 PUSH1 0x4 MSTORE PUSH1 0x24 PUSH0 REVERT JUMPDEST PUSH2 0x313 DUP3 PUSH2 0x2CD JUMP JUMPDEST DUP2 ADD DUP2 DUP2 LT PUSH8 0xFFFFFFFFFFFFFFFF DUP3 GT OR ISZERO PUSH2 0x332 JUMPI PUSH2 0x331 PUSH2 0x2DD JUMP JUMPDEST JUMPDEST DUP1 PUSH1 0x40 MSTORE POP POP POP JUMP JUMPDEST PUSH0 PUSH2 0x344 PUSH2 0x281 JUMP JUMPDEST SWAP1 POP PUSH2 0x350 DUP3 DUP3 PUSH2 0x30A JUMP JUMPDEST SWAP2 SWAP1 POP JUMP JUMPDEST PUSH0 PUSH8 0xFFFFFFFFFFFFFFFF DUP3 GT ISZERO PUSH2 0x36F JUMPI PUSH2 0x36E PUSH2 0x2DD JUMP JUMPDEST JUMPDEST PUSH2 0x378 DUP3 PUSH2 0x2CD JUMP JUMPDEST SWAP1 POP PUSH1 0x20 DUP2 ADD SWAP1 POP SWAP2 SWAP1 POP JUMP JUMPDEST DUP3 DUP2 DUP4 CALLDATACOPY PUSH0 DUP4 DUP4 ADD MSTORE POP POP POP JUMP JUMPDEST PUSH0 PUSH2 0x3A5 PUSH2 0x3A0 DUP5 PUSH2 0x355 JUMP JUMPDEST PUSH2 0x33B JUMP JUMPDEST SWAP1 POP DUP3 DUP2 MSTORE PUSH1 0x20 DUP2 ADD DUP5 DUP5 DUP5 ADD GT ISZERO PUSH2 0x3C1 JUMPI PUSH2 0x3C0 PUSH2 0x2C9 JUMP JUMPDEST JUMPDEST PUSH2 0x3CC DUP5 DUP3 DUP6 PUSH2 0x385 JUMP JUMPDEST POP SWAP4 SWAP3 POP POP POP JUMP JUMPDEST PUSH0 DUP3 PUSH1 0x1F DUP4 ADD SLT PUSH2 0x3E8 JUMPI PUSH2 0x3E7 PUSH2 0x2C5 JUMP JUMPDEST JUMPDEST DUP2 CALLDATALOAD PUSH2 0x3F8 DUP5 DUP3 PUSH1 0x20 DUP7 ADD PUSH2 0x393 JUMP JUMPDEST SWAP2 POP POP SWAP3 SWAP2 POP POP JUMP JUMPDEST PUSH0 DUP1 PUSH0 PUSH1 0x60 DUP5 DUP7 SUB SLT ISZERO PUSH2 0x418 JUMPI PUSH2 0x417 PUSH2 0x28A JUMP JUMPDEST JUMPDEST PUSH0 PUSH2 0x425 DUP7 DUP3 DUP8 ADD PUSH2 0x2B1 JUMP JUMPDEST SWAP4 POP POP PUSH1 0x20 DUP5 ADD CALLDATALOAD PUSH8 0xFFFFFFFFFFFFFFFF DUP2 GT ISZERO PUSH2 0x446 JUMPI PUSH2 0x445 PUSH2 0x28E JUMP JUMPDEST JUMPDEST PUSH2 0x452 DUP7 DUP3 DUP8 ADD PUSH2 0x3D4 JUMP JUMPDEST SWAP3 POP POP PUSH1 0x40 PUSH2 0x463 DUP7 DUP3 DUP8 ADD PUSH2 0x2B1 JUMP JUMPDEST SWAP2 POP POP SWAP3 POP SWAP3 POP SWAP3 JUMP JUMPDEST PUSH0 PUSH1 0x20 DUP3 DUP5 SUB SLT ISZERO PUSH2 0x482 JUMPI PUSH2 0x481 PUSH2 0x28A JUMP JUMPDEST JUMPDEST PUSH0 PUSH2 0x48F DUP5 DUP3 DUP6 ADD PUSH2 0x2B1 JUMP JUMPDEST SWAP2 POP POP SWAP3 SWAP2 POP POP JUMP JUMPDEST PUSH2 0x4A1 DUP2 PUSH2 0x292 JUMP JUMPDEST DUP3 MSTORE POP POP JUMP JUMPDEST PUSH0 PUSH1 0x20 DUP3 ADD SWAP1 POP PUSH2 0x4BA PUSH0 DUP4 ADD DUP5 PUSH2 0x498 JUMP JUMPDEST SWAP3 SWAP2 POP POP JUMP JUMPDEST PUSH0 PUSH1 0x20 DUP3 DUP5 SUB SLT ISZERO PUSH2 0x4D5 JUMPI PUSH2 0x4D4 PUSH2 0x28A JUMP JUMPDEST JUMPDEST PUSH0 DUP3 ADD CALLDATALOAD PUSH8 0xFFFFFFFFFFFFFFFF DUP2 GT ISZERO PUSH2 0x4F2 JUMPI PUSH2 0x4F1 PUSH2 0x28E JUMP JUMPDEST JUMPDEST PUSH2 0x4FE DUP5 DUP3 DUP6 ADD PUSH2 0x3D4 JUMP JUMPDEST SWAP2 POP POP SWAP3 SWAP2 POP POP JUMP JUMPDEST PUSH0 DUP2 MLOAD SWAP1 POP SWAP2 SWAP1 POP JUMP JUMPDEST PUSH0 DUP3 DUP3 MSTORE PUSH1 0x20 DUP3 ADD SWAP1 POP SWAP3 SWAP2 POP POP JUMP JUMPDEST DUP3 DUP2 DUP4 MCOPY PUSH0 DUP4 DUP4 ADD MSTORE POP POP POP JUMP JUMPDEST PUSH0 PUSH2 0x539 DUP3 PUSH2 0x507 JUMP JUMPDEST PUSH2 0x543 DUP2 DUP6 PUSH2 0x511 JUMP JUMPDEST SWAP4 POP PUSH2 0x553 DUP2 DUP6 PUSH1 0x20 DUP7 ADD PUSH2 0x521 JUMP JUMPDEST PUSH2 0x55C DUP2 PUSH2 0x2CD JUMP JUMPDEST DUP5 ADD SWAP2 POP POP SWAP3 SWAP2 POP POP JUMP JUMPDEST PUSH0 PUSH1 0x40 DUP3 ADD SWAP1 POP DUP2 DUP2 SUB PUSH0 DUP4 ADD MSTORE PUSH2 0x57F DUP2 DUP6 PUSH2 0x52F JUMP JUMPDEST SWAP1 POP PUSH2 0x58E PUSH1 0x20 DUP4 ADD DUP5 PUSH2 0x498 JUMP JUMPDEST SWAP4 SWAP3 POP POP POP JUMP JUMPDEST PUSH32 0x4E487B7100000000000000000000000000000000000000000000000000000000 PUSH0 MSTORE PUSH1 0x32 PUSH1 0x4 MSTORE PUSH1 0x24 PUSH0 REVERT JUMPDEST PUSH32 0x4E487B7100000000000000000000000000000000000000000000000000000000 PUSH0 MSTORE PUSH1 0x22 PUSH1 0x4 MSTORE PUSH1 0x24 PUSH0 REVERT JUMPDEST PUSH0 PUSH1 0x2 DUP3 DIV SWAP1 POP PUSH1 0x1 DUP3 AND DUP1 PUSH2 0x606 JUMPI PUSH1 0x7F DUP3 AND SWAP2 POP JUMPDEST PUSH1 0x20 DUP3 LT DUP2 SUB PUSH2 0x619 JUMPI PUSH2 0x618 PUSH2 0x5C2 JUMP JUMPDEST JUMPDEST POP SWAP2 SWAP1 POP JUMP JUMPDEST PUSH0 DUP2 SWAP1 POP DUP2 PUSH0 MSTORE PUSH1 0x20 PUSH0 KECCAK256 SWAP1 POP SWAP2 SWAP1 POP JUMP JUMPDEST PUSH0 PUSH1 0x20 PUSH1 0x1F DUP4 ADD DIV SWAP1 POP SWAP2 SWAP1 POP JUMP JUMPDEST PUSH0 DUP3 DUP3 SHL SWAP1 POP SWAP3 SWAP2 POP POP JUMP JUMPDEST PUSH0 PUSH1 0x8 DUP4 MUL PUSH2 0x67B PUSH32 0xFFFFFFFFFFFFFFFFFFFFFFFFFFFFFFFFFFFFFFFFFFFFFFFFFFFFFFFFFFFFFFFF DUP3 PUSH2 0x640 JUMP JUMPDEST PUSH2 0x685 DUP7 DUP4 PUSH2 0x640 JUMP JUMPDEST SWAP6 POP DUP1 NOT DUP5 AND SWAP4 POP DUP1 DUP7 AND DUP5 OR SWAP3 POP POP POP SWAP4 SWAP3 POP POP POP JUMP JUMPDEST PUSH0 DUP2 SWAP1 POP SWAP2 SWAP1 POP JUMP JUMPDEST PUSH0 PUSH2 0x6C0 PUSH2 0x6BB PUSH2 0x6B6 DUP5 PUSH2 0x292 JUMP JUMPDEST PUSH2 0x69D JUMP JUMPDEST PUSH2 0x292 JUMP JUMPDEST SWAP1 POP SWAP2 SWAP1 POP JUMP JUMPDEST PUSH0 DUP2 SWAP1 POP SWAP2 SWAP1 POP JUMP JUMPDEST PUSH2 0x6D9 DUP4 PUSH2 0x6A6 JUMP JUMPDEST PUSH2 0x6ED PUSH2 0x6E5 DUP3 PUSH2 0x6C7 JUMP JUMPDEST DUP5 DUP5 SLOAD PUSH2 0x64C JUMP JUMPDEST DUP3 SSTORE POP POP POP POP JUMP JUMPDEST PUSH0 SWAP1 JUMP JUMPDEST PUSH2 0x701 PUSH2 0x6F5 JUMP JUMPDEST PUSH2 0x70C DUP2 DUP5 DUP5 PUSH2 0x6D0 JUMP JUMPDEST POP POP POP JUMP JUMPDEST JUMPDEST DUP2 DUP2 LT ISZERO PUSH2 0x72F JUMPI PUSH2 0x724 PUSH0 DUP3 PUSH2 0x6F9 JUMP JUMPDEST PUSH1 0x1 DUP2 ADD SWAP1 POP PUSH2 0x712 JUMP JUMPDEST POP POP JUMP JUMPDEST PUSH1 0x1F DUP3 GT ISZERO PUSH2 0x774 JUMPI PUSH2 0x745 DUP2 PUSH2 0x61F JUMP JUMPDEST PUSH2 0x74E DUP5 PUSH2 0x631 JUMP JUMPDEST DUP2 ADD PUSH1 0x20 DUP6 LT ISZERO PUSH2 0x75D JUMPI DUP2 SWAP1 POP JUMPDEST PUSH2 0x771 PUSH2 0x769 DUP6 PUSH2 0x631 JUMP JUMPDEST DUP4 ADD DUP3 PUSH2 0x711 JUMP JUMPDEST POP POP JUMPDEST POP POP POP JUMP JUMPDEST PUSH0 DUP3 DUP3 SHR SWAP1 POP SWAP3 SWAP2 POP POP JUMP JUMPDEST PUSH0 PUSH2 0x794 PUSH0 NOT DUP5 PUSH1 0x8 MUL PUSH2 0x779 JUMP JUMPDEST NOT DUP1 DUP4 AND SWAP2 POP POP SWAP3 SWAP2 POP POP JUMP JUMPDEST PUSH0 PUSH2 0x7AC DUP4 DUP4 PUSH2 0x785 JUMP JUMPDEST SWAP2 POP DUP3 PUSH1 0x2 MUL DUP3 OR SWAP1 POP SWAP3 SWAP2 POP POP JUMP JUMPDEST PUSH2 0x7C5 DUP3 PUSH2 0x507 JUMP JUMPDEST PUSH8 0xFFFFFFFFFFFFFFFF DUP2 GT ISZERO PUSH2 0x7DE JUMPI PUSH2 0x7DD PUSH2 0x2DD JUMP JUMPDEST JUMPDEST PUSH2 0x7E8 DUP3 SLOAD PUSH2 0x5EF JUMP JUMPDEST PUSH2 0x7F3 DUP3 DUP3 DUP6 PUSH2 0x733 JUMP JUMPDEST PUSH0 PUSH1 0x20 SWAP1 POP PUSH1 0x1F DUP4 GT PUSH1 0x1 DUP2 EQ PUSH2 0x824 JUMPI PUSH0 DUP5 ISZERO PUSH2 0x812 JUMPI DUP3 DUP8 ADD MLOAD SWAP1 POP JUMPDEST PUSH2 0x81C DUP6 DUP3 PUSH2 0x7A1 JUMP JUMPDEST DUP7 SSTORE POP PUSH2 0x883 JUMP JUMPDEST PUSH1 0x1F NOT DUP5 AND PUSH2 0x832 DUP7 PUSH2 0x61F JUMP JUMPDEST PUSH0 JUMPDEST DUP3 DUP2 LT ISZERO PUSH2 0x859 JUMPI DUP5 DUP10 ADD MLOAD DUP3 SSTORE PUSH1 0x1 DUP3 ADD SWAP2 POP PUSH1 0x20 DUP6 ADD SWAP5 POP PUSH1 0x20 DUP2 ADD SWAP1 POP PUSH2 0x834 JUMP JUMPDEST DUP7 DUP4 LT ISZERO PUSH2 0x876 JUMPI DUP5 DUP10 ADD MLOAD PUSH2 0x872 PUSH1 0x1F DUP10 AND DUP3 PUSH2 0x785 JUMP JUMPDEST DUP4 SSTORE POP JUMPDEST PUSH1 0x1 PUSH1 0x2 DUP9 MUL ADD DUP9 SSTORE POP POP POP JUMPDEST POP POP POP POP POP POP JUMP INVALID LOG2 PUSH5 0x6970667358 0x22 SLT KECCAK256 PUSH1 0x1A GASPRICE 0xB4 0xFC RETURN PUSH0 PREVRANDAO 0xC2 PUSH16 0xD96DDA970570203748814FE67EB1F714 CREATE2 0xB8 SWAP4 SWAP5 SWAP11 EXTCODESIZE PUSH5 0x736F6C6343 STOP ADDMOD BYTE STOP CALLER "
		},
		"gasEstimates": {
			"creation": {
				"codeDepositCost": "448200",
				"executionCost": "484",
				"totalCost": "448684"
			},
			"external": {
				"listOfWallets(uint256)": "infinite",
				"nameToBalance(string)": "infinite",
				"retrieveBalance(uint256)": "infinite",
				"store(uint256,string,uint256)": "infinite"
			}
		},
		"methodIdentifiers": {
			"listOfWallets(uint256)": "d8f7bc73",
			"nameToBalance(string)": "93d5b1ab",
			"retrieveBalance(uint256)": "7e1cb160",
			"store(uint256,string,uint256)": "5039c62f"
		}
	},
	"abi": [
		{
			"anonymous": false,
			"inputs": [
				{
					"indexed": false,
					"internalType": "string",
					"name": "message",
					"type": "string"
				},
				{
					"indexed": false,
					"internalType": "uint256",
					"name": "value",
					"type": "uint256"
				}
			],
			"name": "Log",
			"type": "event"
		},
		{
			"inputs": [
				{
					"internalType": "uint256",
					"name": "",
					"type": "uint256"
				}
			],
			"name": "listOfWallets",
			"outputs": [
				{
					"internalType": "string",
					"name": "name",
					"type": "string"
				},
				{
					"internalType": "uint256",
					"name": "balance",
					"type": "uint256"
				}
			],
			"stateMutability": "view",
			"type": "function"
		},
		{
			"inputs": [
				{
					"internalType": "string",
					"name": "",
					"type": "string"
				}
			],
			"name": "nameToBalance",
			"outputs": [
				{
					"internalType": "uint256",
					"name": "",
					"type": "uint256"
				}
			],
			"stateMutability": "view",
			"type": "function"
		},
		{
			"inputs": [
				{
					"internalType": "uint256",
					"name": "_walletIndex",
					"type": "uint256"
				}
			],
			"name": "retrieveBalance",
			"outputs": [
				{
					"internalType": "uint256",
					"name": "",
					"type": "uint256"
				}
			],
			"stateMutability": "view",
			"type": "function"
		},
		{
			"inputs": [
				{
					"internalType": "uint256",
					"name": "_index",
					"type": "uint256"
				},
				{
					"internalType": "string",
					"name": "_name",
					"type": "string"
				},
				{
					"internalType": "uint256",
					"name": "_balance",
					"type": "uint256"
				}
			],
			"name": "store",
			"outputs": [],
			"stateMutability": "nonpayable",
			"type": "function"
		}
	]
}